{
    "contractName": "NFT",
    "abi": [
        {
            "inputs": [
                {
                    "internalType": "string",
                    "name": "name",
                    "type": "string"
                },
                {
                    "internalType": "string",
                    "name": "symbol",
                    "type": "string"
                },
                {
                    "internalType": "address",
                    "name": "initialOwner",
                    "type": "address"
                }
            ],
            "stateMutability": "nonpayable",
            "type": "constructor"
        },
        {
            "inputs": [
                {
                    "internalType": "address",
                    "name": "sender",
                    "type": "address"
                },
                {
                    "internalType": "uint256",
                    "name": "tokenId",
                    "type": "uint256"
                },
                {
                    "internalType": "address",
                    "name": "owner",
                    "type": "address"
                }
            ],
            "name": "ERC721IncorrectOwner",
            "type": "error"
        },
        {
            "inputs": [
                {
                    "internalType": "address",
                    "name": "operator",
                    "type": "address"
                },
                {
                    "internalType": "uint256",
                    "name": "tokenId",
                    "type": "uint256"
                }
            ],
            "name": "ERC721InsufficientApproval",
            "type": "error"
        },
        {
            "inputs": [
                {
                    "internalType": "address",
                    "name": "approver",
                    "type": "address"
                }
            ],
            "name": "ERC721InvalidApprover",
            "type": "error"
        },
        {
            "inputs": [
                {
                    "internalType": "address",
                    "name": "operator",
                    "type": "address"
                }
            ],
            "name": "ERC721InvalidOperator",
            "type": "error"
        },
        {
            "inputs": [
                {
                    "internalType": "address",
                    "name": "owner",
                    "type": "address"
                }
            ],
            "name": "ERC721InvalidOwner",
            "type": "error"
        },
        {
            "inputs": [
                {
                    "internalType": "address",
                    "name": "receiver",
                    "type": "address"
                }
            ],
            "name": "ERC721InvalidReceiver",
            "type": "error"
        },
        {
            "inputs": [
                {
                    "internalType": "address",
                    "name": "sender",
                    "type": "address"
                }
            ],
            "name": "ERC721InvalidSender",
            "type": "error"
        },
        {
            "inputs": [
                {
                    "internalType": "uint256",
                    "name": "tokenId",
                    "type": "uint256"
                }
            ],
            "name": "ERC721NonexistentToken",
            "type": "error"
        },
        {
            "inputs": [
                {
                    "internalType": "address",
                    "name": "owner",
                    "type": "address"
                }
            ],
            "name": "OwnableInvalidOwner",
            "type": "error"
        },
        {
            "inputs": [
                {
                    "internalType": "address",
                    "name": "account",
                    "type": "address"
                }
            ],
            "name": "OwnableUnauthorizedAccount",
            "type": "error"
        },
        {
            "anonymous": false,
            "inputs": [
                {
                    "indexed": true,
                    "internalType": "address",
                    "name": "owner",
                    "type": "address"
                },
                {
                    "indexed": true,
                    "internalType": "address",
                    "name": "approved",
                    "type": "address"
                },
                {
                    "indexed": true,
                    "internalType": "uint256",
                    "name": "tokenId",
                    "type": "uint256"
                }
            ],
            "name": "Approval",
            "type": "event"
        },
        {
            "anonymous": false,
            "inputs": [
                {
                    "indexed": true,
                    "internalType": "address",
                    "name": "owner",
                    "type": "address"
                },
                {
                    "indexed": true,
                    "internalType": "address",
                    "name": "operator",
                    "type": "address"
                },
                {
                    "indexed": false,
                    "internalType": "bool",
                    "name": "approved",
                    "type": "bool"
                }
            ],
            "name": "ApprovalForAll",
            "type": "event"
        },
        {
            "anonymous": false,
            "inputs": [
                {
                    "indexed": true,
                    "internalType": "address",
                    "name": "previousOwner",
                    "type": "address"
                },
                {
                    "indexed": true,
                    "internalType": "address",
                    "name": "newOwner",
                    "type": "address"
                }
            ],
            "name": "OwnershipTransferred",
            "type": "event"
        },
        {
            "anonymous": false,
            "inputs": [
                {
                    "indexed": true,
                    "internalType": "address",
                    "name": "from",
                    "type": "address"
                },
                {
                    "indexed": true,
                    "internalType": "address",
                    "name": "to",
                    "type": "address"
                },
                {
                    "indexed": true,
                    "internalType": "uint256",
                    "name": "tokenId",
                    "type": "uint256"
                }
            ],
            "name": "Transfer",
            "type": "event"
        },
        {
            "inputs": [
                {
                    "internalType": "address",
                    "name": "to",
                    "type": "address"
                },
                {
                    "internalType": "uint256",
                    "name": "tokenId",
                    "type": "uint256"
                }
            ],
            "name": "approve",
            "outputs": [],
            "stateMutability": "nonpayable",
            "type": "function"
        },
        {
            "inputs": [
                {
                    "internalType": "address",
                    "name": "owner",
                    "type": "address"
                }
            ],
            "name": "balanceOf",
            "outputs": [
                {
                    "internalType": "uint256",
                    "name": "",
                    "type": "uint256"
                }
            ],
            "stateMutability": "view",
            "type": "function"
        },
        {
            "inputs": [
                {
                    "internalType": "uint256",
                    "name": "tokenId",
                    "type": "uint256"
                }
            ],
            "name": "getApproved",
            "outputs": [
                {
                    "internalType": "address",
                    "name": "",
                    "type": "address"
                }
            ],
            "stateMutability": "view",
            "type": "function"
        },
        {
            "inputs": [
                {
                    "internalType": "address",
                    "name": "owner",
                    "type": "address"
                },
                {
                    "internalType": "address",
                    "name": "operator",
                    "type": "address"
                }
            ],
            "name": "isApprovedForAll",
            "outputs": [
                {
                    "internalType": "bool",
                    "name": "",
                    "type": "bool"
                }
            ],
            "stateMutability": "view",
            "type": "function"
        },
        {
            "inputs": [],
            "name": "name",
            "outputs": [
                {
                    "internalType": "string",
                    "name": "",
                    "type": "string"
                }
            ],
            "stateMutability": "view",
            "type": "function"
        },
        {
            "inputs": [],
            "name": "owner",
            "outputs": [
                {
                    "internalType": "address",
                    "name": "",
                    "type": "address"
                }
            ],
            "stateMutability": "view",
            "type": "function"
        },
        {
            "inputs": [
                {
                    "internalType": "uint256",
                    "name": "tokenId",
                    "type": "uint256"
                }
            ],
            "name": "ownerOf",
            "outputs": [
                {
                    "internalType": "address",
                    "name": "",
                    "type": "address"
                }
            ],
            "stateMutability": "view",
            "type": "function"
        },
        {
            "inputs": [],
            "name": "renounceOwnership",
            "outputs": [],
            "stateMutability": "nonpayable",
            "type": "function"
        },
        {
            "inputs": [
                {
                    "internalType": "address",
                    "name": "from",
                    "type": "address"
                },
                {
                    "internalType": "address",
                    "name": "to",
                    "type": "address"
                },
                {
                    "internalType": "uint256",
                    "name": "tokenId",
                    "type": "uint256"
                }
            ],
            "name": "safeTransferFrom",
            "outputs": [],
            "stateMutability": "nonpayable",
            "type": "function"
        },
        {
            "inputs": [
                {
                    "internalType": "address",
                    "name": "from",
                    "type": "address"
                },
                {
                    "internalType": "address",
                    "name": "to",
                    "type": "address"
                },
                {
                    "internalType": "uint256",
                    "name": "tokenId",
                    "type": "uint256"
                },
                {
                    "internalType": "bytes",
                    "name": "data",
                    "type": "bytes"
                }
            ],
            "name": "safeTransferFrom",
            "outputs": [],
            "stateMutability": "nonpayable",
            "type": "function"
        },
        {
            "inputs": [
                {
                    "internalType": "address",
                    "name": "operator",
                    "type": "address"
                },
                {
                    "internalType": "bool",
                    "name": "approved",
                    "type": "bool"
                }
            ],
            "name": "setApprovalForAll",
            "outputs": [],
            "stateMutability": "nonpayable",
            "type": "function"
        },
        {
            "inputs": [
                {
                    "internalType": "bytes4",
                    "name": "interfaceId",
                    "type": "bytes4"
                }
            ],
            "name": "supportsInterface",
            "outputs": [
                {
                    "internalType": "bool",
                    "name": "",
                    "type": "bool"
                }
            ],
            "stateMutability": "view",
            "type": "function"
        },
        {
            "inputs": [],
            "name": "symbol",
            "outputs": [
                {
                    "internalType": "string",
                    "name": "",
                    "type": "string"
                }
            ],
            "stateMutability": "view",
            "type": "function"
        },
        {
            "inputs": [],
            "name": "tokenCounter",
            "outputs": [
                {
                    "internalType": "uint256",
                    "name": "",
                    "type": "uint256"
                }
            ],
            "stateMutability": "view",
            "type": "function"
        },
        {
            "inputs": [
                {
                    "internalType": "uint256",
                    "name": "tokenId",
                    "type": "uint256"
                }
            ],
            "name": "tokenURI",
            "outputs": [
                {
                    "internalType": "string",
                    "name": "",
                    "type": "string"
                }
            ],
            "stateMutability": "view",
            "type": "function"
        },
        {
            "inputs": [
                {
                    "internalType": "address",
                    "name": "from",
                    "type": "address"
                },
                {
                    "internalType": "address",
                    "name": "to",
                    "type": "address"
                },
                {
                    "internalType": "uint256",
                    "name": "tokenId",
                    "type": "uint256"
                }
            ],
            "name": "transferFrom",
            "outputs": [],
            "stateMutability": "nonpayable",
            "type": "function"
        },
        {
            "inputs": [
                {
                    "internalType": "address",
                    "name": "newOwner",
                    "type": "address"
                }
            ],
            "name": "transferOwnership",
            "outputs": [],
            "stateMutability": "nonpayable",
            "type": "function"
        },
        {
            "inputs": [
                {
                    "internalType": "address",
                    "name": "to",
                    "type": "address"
                }
            ],
            "name": "createNFT",
            "outputs": [
                {
                    "internalType": "uint256",
                    "name": "",
                    "type": "uint256"
                }
            ],
            "stateMutability": "nonpayable",
            "type": "function"
        }
    ],
    "bytecode": "0x608060405234801562000010575f80fd5b50604051620028263803806200282683398181016040528101906200003691906200039c565b808383815f90816200004991906200066a565b5080600190816200005b91906200066a565b5050505f73ffffffffffffffffffffffffffffffffffffffff168173ffffffffffffffffffffffffffffffffffffffff1603620000d1575f6040517f1e4fbdf7000000000000000000000000000000000000000000000000000000008152600401620000c891906200075f565b60405180910390fd5b620000e281620000f360201b60201c565b505f6007819055505050506200077a565b5f60065f9054906101000a900473ffffffffffffffffffffffffffffffffffffffff1690508160065f6101000a81548173ffffffffffffffffffffffffffffffffffffffff021916908373ffffffffffffffffffffffffffffffffffffffff1602179055508173ffffffffffffffffffffffffffffffffffffffff168173ffffffffffffffffffffffffffffffffffffffff167f8be0079c531659141344cd1fd0a4f28419497f9722a3daafe3b4186f6b6457e060405160405180910390a35050565b5f604051905090565b5f80fd5b5f80fd5b5f80fd5b5f80fd5b5f601f19601f8301169050919050565b7f4e487b71000000000000000000000000000000000000000000000000000000005f52604160045260245ffd5b6200021782620001cf565b810181811067ffffffffffffffff82111715620002395762000238620001df565b5b80604052505050565b5f6200024d620001b6565b90506200025b82826200020c565b919050565b5f67ffffffffffffffff8211156200027d576200027c620001df565b5b6200028882620001cf565b9050602081019050919050565b5f5b83811015620002b457808201518184015260208101905062000297565b5f8484015250505050565b5f620002d5620002cf8462000260565b62000242565b905082815260208101848484011115620002f457620002f3620001cb565b5b6200030184828562000295565b509392505050565b5f82601f83011262000320576200031f620001c7565b5b815162000332848260208601620002bf565b91505092915050565b5f73ffffffffffffffffffffffffffffffffffffffff82169050919050565b5f62000366826200033b565b9050919050565b62000378816200035a565b811462000383575f80fd5b50565b5f8151905062000396816200036d565b92915050565b5f805f60608486031215620003b657620003b5620001bf565b5b5f84015167ffffffffffffffff811115620003d657620003d5620001c3565b5b620003e48682870162000309565b935050602084015167ffffffffffffffff811115620004085762000407620001c3565b5b620004168682870162000309565b9250506040620004298682870162000386565b9150509250925092565b5f81519050919050565b7f4e487b71000000000000000000000000000000000000000000000000000000005f52602260045260245ffd5b5f60028204905060018216806200048257607f821691505b6020821081036200049857620004976200043d565b5b50919050565b5f819050815f5260205f209050919050565b5f6020601f8301049050919050565b5f82821b905092915050565b5f60088302620004fc7fffffffffffffffffffffffffffffffffffffffffffffffffffffffffffffffff82620004bf565b620005088683620004bf565b95508019841693508086168417925050509392505050565b5f819050919050565b5f819050919050565b5f620005526200054c620005468462000520565b62000529565b62000520565b9050919050565b5f819050919050565b6200056d8362000532565b620005856200057c8262000559565b848454620004cb565b825550505050565b5f90565b6200059b6200058d565b620005a881848462000562565b505050565b5b81811015620005cf57620005c35f8262000591565b600181019050620005ae565b5050565b601f8211156200061e57620005e8816200049e565b620005f384620004b0565b8101602085101562000603578190505b6200061b6200061285620004b0565b830182620005ad565b50505b505050565b5f82821c905092915050565b5f620006405f198460080262000623565b1980831691505092915050565b5f6200065a83836200062f565b9150826002028217905092915050565b620006758262000433565b67ffffffffffffffff811115620006915762000690620001df565b5b6200069d82546200046a565b620006aa828285620005d3565b5f60209050601f831160018114620006e0575f8415620006cb578287015190505b620006d785826200064d565b86555062000746565b601f198416620006f0866200049e565b5f5b828110156200071957848901518255600182019150602085019450602081019050620006f2565b8683101562000739578489015162000735601f8916826200062f565b8355505b6001600288020188555050505b505050505050565b62000759816200035a565b82525050565b5f602082019050620007745f8301846200074e565b92915050565b61209e80620007885f395ff3fe608060405234801561000f575f80fd5b5060043610610114575f3560e01c8063715018a6116100a0578063b88d4fde1161006f578063b88d4fde146102dc578063c87b56dd146102f8578063d082e38114610328578063e985e9c514610346578063f2fde38b1461037657610114565b8063715018a61461027a5780638da5cb5b1461028457806395d89b41146102a2578063a22cb465146102c057610114565b806317e5883c116100e757806317e5883c146101b257806323b872dd146101e257806342842e0e146101fe5780636352211e1461021a57806370a082311461024a57610114565b806301ffc9a71461011857806306fdde0314610148578063081812fc14610166578063095ea7b314610196575b5f80fd5b610132600480360381019061012d91906118bb565b610392565b60405161013f9190611900565b60405180910390f35b610150610473565b60405161015d91906119a3565b60405180910390f35b610180600480360381019061017b91906119f6565b610502565b60405161018d9190611a60565b60405180910390f35b6101b060048036038101906101ab9190611aa3565b61051d565b005b6101cc60048036038101906101c79190611ae1565b610533565b6040516101d99190611b1b565b60405180910390f35b6101fc60048036038101906101f79190611b34565b61056c565b005b61021860048036038101906102139190611b34565b61066b565b005b610234600480360381019061022f91906119f6565b61068a565b6040516102419190611a60565b60405180910390f35b610264600480360381019061025f9190611ae1565b61069b565b6040516102719190611b1b565b60405180910390f35b610282610751565b005b61028c610764565b6040516102999190611a60565b60405180910390f35b6102aa61078c565b6040516102b791906119a3565b60405180910390f35b6102da60048036038101906102d59190611bae565b61081c565b005b6102f660048036038101906102f19190611d18565b610832565b005b610312600480360381019061030d91906119f6565b61084f565b60405161031f91906119a3565b60405180910390f35b6103306108b5565b60405161033d9190611b1b565b60405180910390f35b610360600480360381019061035b9190611d98565b6108bb565b60405161036d9190611900565b60405180910390f35b610390600480360381019061038b9190611ae1565b610949565b005b5f7f80ac58cd000000000000000000000000000000000000000000000000000000007bffffffffffffffffffffffffffffffffffffffffffffffffffffffff1916827bffffffffffffffffffffffffffffffffffffffffffffffffffffffff1916148061045c57507f5b5e139f000000000000000000000000000000000000000000000000000000007bffffffffffffffffffffffffffffffffffffffffffffffffffffffff1916827bffffffffffffffffffffffffffffffffffffffffffffffffffffffff1916145b8061046c575061046b826109cd565b5b9050919050565b60605f805461048190611e03565b80601f01602080910402602001604051908101604052809291908181526020018280546104ad90611e03565b80156104f85780601f106104cf576101008083540402835291602001916104f8565b820191905f5260205f20905b8154815290600101906020018083116104db57829003601f168201915b5050505050905090565b5f61050c82610a36565b5061051682610abc565b9050919050565b61052f828261052a610af5565b610afc565b5050565b5f61053c610b0e565b5f600754905061054c8382610b95565b60075f81548092919061055e90611e60565b919050555080915050919050565b5f73ffffffffffffffffffffffffffffffffffffffff168273ffffffffffffffffffffffffffffffffffffffff16036105dc575f6040517f64a0ae920000000000000000000000000000000000000000000000000000000081526004016105d39190611a60565b60405180910390fd5b5f6105ef83836105ea610af5565b610bb2565b90508373ffffffffffffffffffffffffffffffffffffffff168173ffffffffffffffffffffffffffffffffffffffff1614610665578382826040517f64283d7b00000000000000000000000000000000000000000000000000000000815260040161065c93929190611ea7565b60405180910390fd5b50505050565b61068583838360405180602001604052805f815250610832565b505050565b5f61069482610a36565b9050919050565b5f8073ffffffffffffffffffffffffffffffffffffffff168273ffffffffffffffffffffffffffffffffffffffff160361070c575f6040517f89c62b640000000000000000000000000000000000000000000000000000000081526004016107039190611a60565b60405180910390fd5b60035f8373ffffffffffffffffffffffffffffffffffffffff1673ffffffffffffffffffffffffffffffffffffffff1681526020019081526020015f20549050919050565b610759610b0e565b6107625f610dbd565b565b5f60065f9054906101000a900473ffffffffffffffffffffffffffffffffffffffff16905090565b60606001805461079b90611e03565b80601f01602080910402602001604051908101604052809291908181526020018280546107c790611e03565b80156108125780601f106107e957610100808354040283529160200191610812565b820191905f5260205f20905b8154815290600101906020018083116107f557829003601f168201915b5050505050905090565b61082e610827610af5565b8383610e80565b5050565b61083d84848461056c565b61084984848484610fe9565b50505050565b606061085a82610a36565b505f61086461119b565b90505f8151116108825760405180602001604052805f8152506108ad565b8061088c846111b1565b60405160200161089d929190611f16565b6040516020818303038152906040525b915050919050565b60075481565b5f60055f8473ffffffffffffffffffffffffffffffffffffffff1673ffffffffffffffffffffffffffffffffffffffff1681526020019081526020015f205f8373ffffffffffffffffffffffffffffffffffffffff1673ffffffffffffffffffffffffffffffffffffffff1681526020019081526020015f205f9054906101000a900460ff16905092915050565b610951610b0e565b5f73ffffffffffffffffffffffffffffffffffffffff168173ffffffffffffffffffffffffffffffffffffffff16036109c1575f6040517f1e4fbdf70000000000000000000000000000000000000000000000000000000081526004016109b89190611a60565b60405180910390fd5b6109ca81610dbd565b50565b5f7f01ffc9a7000000000000000000000000000000000000000000000000000000007bffffffffffffffffffffffffffffffffffffffffffffffffffffffff1916827bffffffffffffffffffffffffffffffffffffffffffffffffffffffff1916149050919050565b5f80610a418361127b565b90505f73ffffffffffffffffffffffffffffffffffffffff168173ffffffffffffffffffffffffffffffffffffffff1603610ab357826040517f7e273289000000000000000000000000000000000000000000000000000000008152600401610aaa9190611b1b565b60405180910390fd5b80915050919050565b5f60045f8381526020019081526020015f205f9054906101000a900473ffffffffffffffffffffffffffffffffffffffff169050919050565b5f33905090565b610b0983838360016112b4565b505050565b610b16610af5565b73ffffffffffffffffffffffffffffffffffffffff16610b34610764565b73ffffffffffffffffffffffffffffffffffffffff1614610b9357610b57610af5565b6040517f118cdaa7000000000000000000000000000000000000000000000000000000008152600401610b8a9190611a60565b60405180910390fd5b565b610bae828260405180602001604052805f815250611473565b5050565b5f80610bbd8461127b565b90505f73ffffffffffffffffffffffffffffffffffffffff168373ffffffffffffffffffffffffffffffffffffffff1614610bfe57610bfd81848661148e565b5b5f73ffffffffffffffffffffffffffffffffffffffff168173ffffffffffffffffffffffffffffffffffffffff1614610c8957610c3d5f855f806112b4565b600160035f8373ffffffffffffffffffffffffffffffffffffffff1673ffffffffffffffffffffffffffffffffffffffff1681526020019081526020015f205f82825403925050819055505b5f73ffffffffffffffffffffffffffffffffffffffff168573ffffffffffffffffffffffffffffffffffffffff1614610d0857600160035f8773ffffffffffffffffffffffffffffffffffffffff1673ffffffffffffffffffffffffffffffffffffffff1681526020019081526020015f205f82825401925050819055505b8460025f8681526020019081526020015f205f6101000a81548173ffffffffffffffffffffffffffffffffffffffff021916908373ffffffffffffffffffffffffffffffffffffffff160217905550838573ffffffffffffffffffffffffffffffffffffffff168273ffffffffffffffffffffffffffffffffffffffff167fddf252ad1be2c89b69c2b068fc378daa952ba7f163c4a11628f55a4df523b3ef60405160405180910390a4809150509392505050565b5f60065f9054906101000a900473ffffffffffffffffffffffffffffffffffffffff1690508160065f6101000a81548173ffffffffffffffffffffffffffffffffffffffff021916908373ffffffffffffffffffffffffffffffffffffffff1602179055508173ffffffffffffffffffffffffffffffffffffffff168173ffffffffffffffffffffffffffffffffffffffff167f8be0079c531659141344cd1fd0a4f28419497f9722a3daafe3b4186f6b6457e060405160405180910390a35050565b5f73ffffffffffffffffffffffffffffffffffffffff168273ffffffffffffffffffffffffffffffffffffffff1603610ef057816040517f5b08ba18000000000000000000000000000000000000000000000000000000008152600401610ee79190611a60565b60405180910390fd5b8060055f8573ffffffffffffffffffffffffffffffffffffffff1673ffffffffffffffffffffffffffffffffffffffff1681526020019081526020015f205f8473ffffffffffffffffffffffffffffffffffffffff1673ffffffffffffffffffffffffffffffffffffffff1681526020019081526020015f205f6101000a81548160ff0219169083151502179055508173ffffffffffffffffffffffffffffffffffffffff168373ffffffffffffffffffffffffffffffffffffffff167f17307eab39ab6107e8899845ad3d59bd9653f200f220920489ca2b5937696c3183604051610fdc9190611900565b60405180910390a3505050565b5f8373ffffffffffffffffffffffffffffffffffffffff163b1115611195578273ffffffffffffffffffffffffffffffffffffffff1663150b7a0261102c610af5565b8685856040518563ffffffff1660e01b815260040161104e9493929190611f8b565b6020604051808303815f875af192505050801561108957506040513d601f19601f820116820180604052508101906110869190611fe9565b60015b61110a573d805f81146110b7576040519150601f19603f3d011682016040523d82523d5f602084013e6110bc565b606091505b505f81510361110257836040517f64a0ae920000000000000000000000000000000000000000000000000000000081526004016110f99190611a60565b60405180910390fd5b805181602001fd5b63150b7a0260e01b7bffffffffffffffffffffffffffffffffffffffffffffffffffffffff1916817bffffffffffffffffffffffffffffffffffffffffffffffffffffffff19161461119357836040517f64a0ae9200000000000000000000000000000000000000000000000000000000815260040161118a9190611a60565b60405180910390fd5b505b50505050565b606060405180602001604052805f815250905090565b60605f60016111bf84611551565b0190505f8167ffffffffffffffff8111156111dd576111dc611bf4565b5b6040519080825280601f01601f19166020018201604052801561120f5781602001600182028036833780820191505090505b5090505f82602001820190505b600115611270578080600190039150507f3031323334353637383961626364656600000000000000000000000000000000600a86061a8153600a858161126557611264612014565b5b0494505f850361121c575b819350505050919050565b5f60025f8381526020019081526020015f205f9054906101000a900473ffffffffffffffffffffffffffffffffffffffff169050919050565b80806112ec57505f73ffffffffffffffffffffffffffffffffffffffff168273ffffffffffffffffffffffffffffffffffffffff1614155b1561141e575f6112fb84610a36565b90505f73ffffffffffffffffffffffffffffffffffffffff168373ffffffffffffffffffffffffffffffffffffffff161415801561136557508273ffffffffffffffffffffffffffffffffffffffff168173ffffffffffffffffffffffffffffffffffffffff1614155b8015611378575061137681846108bb565b155b156113ba57826040517fa9fbf51f0000000000000000000000000000000000000000000000000000000081526004016113b19190611a60565b60405180910390fd5b811561141c57838573ffffffffffffffffffffffffffffffffffffffff168273ffffffffffffffffffffffffffffffffffffffff167f8c5be1e5ebec7d5bd14f71427d1e84f3dd0314c0f7b2291e5b200ac8c7c3b92560405160405180910390a45b505b8360045f8581526020019081526020015f205f6101000a81548173ffffffffffffffffffffffffffffffffffffffff021916908373ffffffffffffffffffffffffffffffffffffffff16021790555050505050565b61147d83836116a2565b6114895f848484610fe9565b505050565b611499838383611795565b61154c575f73ffffffffffffffffffffffffffffffffffffffff168373ffffffffffffffffffffffffffffffffffffffff160361150d57806040517f7e2732890000000000000000000000000000000000000000000000000000000081526004016115049190611b1b565b60405180910390fd5b81816040517f177e802f000000000000000000000000000000000000000000000000000000008152600401611543929190612041565b60405180910390fd5b505050565b5f805f90507a184f03e93ff9f4daa797ed6e38ed64bf6a1f01000000000000000083106115ad577a184f03e93ff9f4daa797ed6e38ed64bf6a1f01000000000000000083816115a3576115a2612014565b5b0492506040810190505b6d04ee2d6d415b85acef810000000083106115ea576d04ee2d6d415b85acef810000000083816115e0576115df612014565b5b0492506020810190505b662386f26fc10000831061161957662386f26fc10000838161160f5761160e612014565b5b0492506010810190505b6305f5e1008310611642576305f5e100838161163857611637612014565b5b0492506008810190505b612710831061166757612710838161165d5761165c612014565b5b0492506004810190505b6064831061168a57606483816116805761167f612014565b5b0492506002810190505b600a8310611699576001810190505b80915050919050565b5f73ffffffffffffffffffffffffffffffffffffffff168273ffffffffffffffffffffffffffffffffffffffff1603611712575f6040517f64a0ae920000000000000000000000000000000000000000000000000000000081526004016117099190611a60565b60405180910390fd5b5f61171e83835f610bb2565b90505f73ffffffffffffffffffffffffffffffffffffffff168173ffffffffffffffffffffffffffffffffffffffff1614611790575f6040517f73c6ac6e0000000000000000000000000000000000000000000000000000000081526004016117879190611a60565b60405180910390fd5b505050565b5f8073ffffffffffffffffffffffffffffffffffffffff168373ffffffffffffffffffffffffffffffffffffffff161415801561184c57508273ffffffffffffffffffffffffffffffffffffffff168473ffffffffffffffffffffffffffffffffffffffff16148061180d575061180c84846108bb565b5b8061184b57508273ffffffffffffffffffffffffffffffffffffffff1661183383610abc565b73ffffffffffffffffffffffffffffffffffffffff16145b5b90509392505050565b5f604051905090565b5f80fd5b5f80fd5b5f7fffffffff0000000000000000000000000000000000000000000000000000000082169050919050565b61189a81611866565b81146118a4575f80fd5b50565b5f813590506118b581611891565b92915050565b5f602082840312156118d0576118cf61185e565b5b5f6118dd848285016118a7565b91505092915050565b5f8115159050919050565b6118fa816118e6565b82525050565b5f6020820190506119135f8301846118f1565b92915050565b5f81519050919050565b5f82825260208201905092915050565b5f5b83811015611950578082015181840152602081019050611935565b5f8484015250505050565b5f601f19601f8301169050919050565b5f61197582611919565b61197f8185611923565b935061198f818560208601611933565b6119988161195b565b840191505092915050565b5f6020820190508181035f8301526119bb818461196b565b905092915050565b5f819050919050565b6119d5816119c3565b81146119df575f80fd5b50565b5f813590506119f0816119cc565b92915050565b5f60208284031215611a0b57611a0a61185e565b5b5f611a18848285016119e2565b91505092915050565b5f73ffffffffffffffffffffffffffffffffffffffff82169050919050565b5f611a4a82611a21565b9050919050565b611a5a81611a40565b82525050565b5f602082019050611a735f830184611a51565b92915050565b611a8281611a40565b8114611a8c575f80fd5b50565b5f81359050611a9d81611a79565b92915050565b5f8060408385031215611ab957611ab861185e565b5b5f611ac685828601611a8f565b9250506020611ad7858286016119e2565b9150509250929050565b5f60208284031215611af657611af561185e565b5b5f611b0384828501611a8f565b91505092915050565b611b15816119c3565b82525050565b5f602082019050611b2e5f830184611b0c565b92915050565b5f805f60608486031215611b4b57611b4a61185e565b5b5f611b5886828701611a8f565b9350506020611b6986828701611a8f565b9250506040611b7a868287016119e2565b9150509250925092565b611b8d816118e6565b8114611b97575f80fd5b50565b5f81359050611ba881611b84565b92915050565b5f8060408385031215611bc457611bc361185e565b5b5f611bd185828601611a8f565b9250506020611be285828601611b9a565b9150509250929050565b5f80fd5b5f80fd5b7f4e487b71000000000000000000000000000000000000000000000000000000005f52604160045260245ffd5b611c2a8261195b565b810181811067ffffffffffffffff82111715611c4957611c48611bf4565b5b80604052505050565b5f611c5b611855565b9050611c678282611c21565b919050565b5f67ffffffffffffffff821115611c8657611c85611bf4565b5b611c8f8261195b565b9050602081019050919050565b828183375f83830152505050565b5f611cbc611cb784611c6c565b611c52565b905082815260208101848484011115611cd857611cd7611bf0565b5b611ce3848285611c9c565b509392505050565b5f82601f830112611cff57611cfe611bec565b5b8135611d0f848260208601611caa565b91505092915050565b5f805f8060808587031215611d3057611d2f61185e565b5b5f611d3d87828801611a8f565b9450506020611d4e87828801611a8f565b9350506040611d5f878288016119e2565b925050606085013567ffffffffffffffff811115611d8057611d7f611862565b5b611d8c87828801611ceb565b91505092959194509250565b5f8060408385031215611dae57611dad61185e565b5b5f611dbb85828601611a8f565b9250506020611dcc85828601611a8f565b9150509250929050565b7f4e487b71000000000000000000000000000000000000000000000000000000005f52602260045260245ffd5b5f6002820490506001821680611e1a57607f821691505b602082108103611e2d57611e2c611dd6565b5b50919050565b7f4e487b71000000000000000000000000000000000000000000000000000000005f52601160045260245ffd5b5f611e6a826119c3565b91507fffffffffffffffffffffffffffffffffffffffffffffffffffffffffffffffff8203611e9c57611e9b611e33565b5b600182019050919050565b5f606082019050611eba5f830186611a51565b611ec76020830185611b0c565b611ed46040830184611a51565b949350505050565b5f81905092915050565b5f611ef082611919565b611efa8185611edc565b9350611f0a818560208601611933565b80840191505092915050565b5f611f218285611ee6565b9150611f2d8284611ee6565b91508190509392505050565b5f81519050919050565b5f82825260208201905092915050565b5f611f5d82611f39565b611f678185611f43565b9350611f77818560208601611933565b611f808161195b565b840191505092915050565b5f608082019050611f9e5f830187611a51565b611fab6020830186611a51565b611fb86040830185611b0c565b8181036060830152611fca8184611f53565b905095945050505050565b5f81519050611fe381611891565b92915050565b5f60208284031215611ffe57611ffd61185e565b5b5f61200b84828501611fd5565b91505092915050565b7f4e487b71000000000000000000000000000000000000000000000000000000005f52601260045260245ffd5b5f6040820190506120545f830185611a51565b6120616020830184611b0c565b939250505056fea2646970667358221220e2d6499bbc04f26e8eab631514051db3e4ab892e700d1b178efda8140a12648864736f6c63430008140033",
    "immutableReferences": {},
    "source": "// SPDX-License-Identifier: MIT\r\npragma solidity ^0.8.20;\r\n\r\nimport \"@openzeppelin/contracts/token/ERC721/ERC721.sol\";\r\nimport \"@openzeppelin/contracts/access/Ownable.sol\";\r\n\r\ncontract NFT is ERC721, Ownable {\r\n    uint256 public tokenCounter;\r\n\r\n    constructor(string memory name, string memory symbol, address initialOwner) ERC721(name, symbol) Ownable(initialOwner) {\r\n        tokenCounter = 0;\r\n    }\r\n\r\n    function createNFT(address to) public onlyOwner returns (uint256) {\r\n        uint256 newItemId = tokenCounter;\r\n        _safeMint(to, newItemId);\r\n        tokenCounter++;\r\n        return newItemId;\r\n    }\r\n}\r\n",
    "sourcePath": "D:\\Block_CHain_Project\\nft-platform\\contracts\\nft.sol",
    "compiler": {
        "name": "solc",
        "version": "0.8.20+commit.a1b79de6.Emscripten.clang"
    },
    "schemaVersion": "3.4.16",
    "updatedAt": "2024-06-07T06:22:04.393Z",
    "devdoc": {
        "errors": {
            "ERC721IncorrectOwner(address,uint256,address)": [
                {
                    "details": "Indicates an error related to the ownership over a particular token. Used in transfers.",
                    "params": {
                        "owner": "Address of the current owner of a token.",
                        "sender": "Address whose tokens are being transferred.",
                        "tokenId": "Identifier number of a token."
                    }
                }
            ],
            "ERC721InsufficientApproval(address,uint256)": [
                {
                    "details": "Indicates a failure with the `operator`s approval. Used in transfers.",
                    "params": {
                        "operator": "Address that may be allowed to operate on tokens without being their owner.",
                        "tokenId": "Identifier number of a token."
                    }
                }
            ],
            "ERC721InvalidApprover(address)": [
                {
                    "details": "Indicates a failure with the `approver` of a token to be approved. Used in approvals.",
                    "params": {
                        "approver": "Address initiating an approval operation."
                    }
                }
            ],
            "ERC721InvalidOperator(address)": [
                {
                    "details": "Indicates a failure with the `operator` to be approved. Used in approvals.",
                    "params": {
                        "operator": "Address that may be allowed to operate on tokens without being their owner."
                    }
                }
            ],
            "ERC721InvalidOwner(address)": [
                {
                    "details": "Indicates that an address can't be an owner. For example, `address(0)` is a forbidden owner in EIP-20. Used in balance queries.",
                    "params": {
                        "owner": "Address of the current owner of a token."
                    }
                }
            ],
            "ERC721InvalidReceiver(address)": [
                {
                    "details": "Indicates a failure with the token `receiver`. Used in transfers.",
                    "params": {
                        "receiver": "Address to which tokens are being transferred."
                    }
                }
            ],
            "ERC721InvalidSender(address)": [
                {
                    "details": "Indicates a failure with the token `sender`. Used in transfers.",
                    "params": {
                        "sender": "Address whose tokens are being transferred."
                    }
                }
            ],
            "ERC721NonexistentToken(uint256)": [
                {
                    "details": "Indicates a `tokenId` whose `owner` is the zero address.",
                    "params": {
                        "tokenId": "Identifier number of a token."
                    }
                }
            ],
            "OwnableInvalidOwner(address)": [
                {
                    "details": "The owner is not a valid owner account. (eg. `address(0)`)"
                }
            ],
            "OwnableUnauthorizedAccount(address)": [
                {
                    "details": "The caller account is not authorized to perform an operation."
                }
            ]
        },
        "events": {
            "Approval(address,address,uint256)": {
                "details": "Emitted when `owner` enables `approved` to manage the `tokenId` token."
            },
            "ApprovalForAll(address,address,bool)": {
                "details": "Emitted when `owner` enables or disables (`approved`) `operator` to manage all of its assets."
            },
            "Transfer(address,address,uint256)": {
                "details": "Emitted when `tokenId` token is transferred from `from` to `to`."
            }
        },
        "kind": "dev",
        "methods": {
            "approve(address,uint256)": {
                "details": "See {IERC721-approve}."
            },
            "balanceOf(address)": {
                "details": "See {IERC721-balanceOf}."
            },
            "getApproved(uint256)": {
                "details": "See {IERC721-getApproved}."
            },
            "isApprovedForAll(address,address)": {
                "details": "See {IERC721-isApprovedForAll}."
            },
            "name()": {
                "details": "See {IERC721Metadata-name}."
            },
            "owner()": {
                "details": "Returns the address of the current owner."
            },
            "ownerOf(uint256)": {
                "details": "See {IERC721-ownerOf}."
            },
            "renounceOwnership()": {
                "details": "Leaves the contract without owner. It will not be possible to call `onlyOwner` functions. Can only be called by the current owner. NOTE: Renouncing ownership will leave the contract without an owner, thereby disabling any functionality that is only available to the owner."
            },
            "safeTransferFrom(address,address,uint256)": {
                "details": "See {IERC721-safeTransferFrom}."
            },
            "safeTransferFrom(address,address,uint256,bytes)": {
                "details": "See {IERC721-safeTransferFrom}."
            },
            "setApprovalForAll(address,bool)": {
                "details": "See {IERC721-setApprovalForAll}."
            },
            "supportsInterface(bytes4)": {
                "details": "See {IERC165-supportsInterface}."
            },
            "symbol()": {
                "details": "See {IERC721Metadata-symbol}."
            },
            "tokenURI(uint256)": {
                "details": "See {IERC721Metadata-tokenURI}."
            },
            "transferFrom(address,address,uint256)": {
                "details": "See {IERC721-transferFrom}."
            },
            "transferOwnership(address)": {
                "details": "Transfers ownership of the contract to a new account (`newOwner`). Can only be called by the current owner."
            }
        },
        "version": 1
    },
    "userdoc": {
        "kind": "user",
        "methods": {},
        "version": 1
    }
}